{
  "_format": "hh3-artifact-1",
  "contractName": "FundMe",
  "sourceName": "contracts/FundMe.sol",
  "abi": [
    {
      "inputs": [
        {
          "internalType": "uint256",
          "name": "_lockTime",
          "type": "uint256"
        },
        {
          "internalType": "address",
          "name": "_dataFeedAddr",
          "type": "address"
        }
      ],
      "stateMutability": "nonpayable",
      "type": "constructor"
    },
    {
      "anonymous": false,
      "inputs": [
        {
          "indexed": false,
          "internalType": "address",
          "name": "_funder",
          "type": "address"
        },
        {
          "indexed": false,
          "internalType": "uint256",
          "name": "_amount",
          "type": "uint256"
        }
      ],
      "name": "FundEvent",
      "type": "event"
    },
    {
      "anonymous": false,
      "inputs": [
        {
          "indexed": false,
          "internalType": "address",
          "name": "_owner",
          "type": "address"
        },
        {
          "indexed": false,
          "internalType": "uint256",
          "name": "_amount",
          "type": "uint256"
        }
      ],
      "name": "OwnerGetFundEvent",
      "type": "event"
    },
    {
      "anonymous": false,
      "inputs": [
        {
          "indexed": false,
          "internalType": "address",
          "name": "_funder",
          "type": "address"
        },
        {
          "indexed": false,
          "internalType": "uint256",
          "name": "_amount",
          "type": "uint256"
        }
      ],
      "name": "ReFundEvent",
      "type": "event"
    },
    {
      "inputs": [],
      "name": "MINIMUM_VALUE",
      "outputs": [
        {
          "internalType": "uint256",
          "name": "",
          "type": "uint256"
        }
      ],
      "stateMutability": "view",
      "type": "function"
    },
    {
      "inputs": [],
      "name": "TARGET",
      "outputs": [
        {
          "internalType": "uint256",
          "name": "",
          "type": "uint256"
        }
      ],
      "stateMutability": "view",
      "type": "function"
    },
    {
      "inputs": [
        {
          "internalType": "address",
          "name": "",
          "type": "address"
        }
      ],
      "name": "addressToAmountFunded",
      "outputs": [
        {
          "internalType": "uint256",
          "name": "",
          "type": "uint256"
        }
      ],
      "stateMutability": "view",
      "type": "function"
    },
    {
      "inputs": [
        {
          "internalType": "uint256",
          "name": "_amount",
          "type": "uint256"
        }
      ],
      "name": "convertEthToUsd",
      "outputs": [
        {
          "internalType": "uint256",
          "name": "",
          "type": "uint256"
        }
      ],
      "stateMutability": "view",
      "type": "function"
    },
    {
      "inputs": [],
      "name": "deploymentTimestamp",
      "outputs": [
        {
          "internalType": "uint256",
          "name": "",
          "type": "uint256"
        }
      ],
      "stateMutability": "view",
      "type": "function"
    },
    {
      "inputs": [],
      "name": "fund",
      "outputs": [],
      "stateMutability": "payable",
      "type": "function"
    },
    {
      "inputs": [],
      "name": "getChainlinkDataFeedLatestAnswer",
      "outputs": [
        {
          "internalType": "int256",
          "name": "",
          "type": "int256"
        }
      ],
      "stateMutability": "view",
      "type": "function"
    },
    {
      "inputs": [],
      "name": "getFund",
      "outputs": [],
      "stateMutability": "nonpayable",
      "type": "function"
    },
    {
      "inputs": [],
      "name": "lockTime",
      "outputs": [
        {
          "internalType": "uint256",
          "name": "",
          "type": "uint256"
        }
      ],
      "stateMutability": "view",
      "type": "function"
    },
    {
      "inputs": [],
      "name": "ownerFunded",
      "outputs": [
        {
          "internalType": "bool",
          "name": "",
          "type": "bool"
        }
      ],
      "stateMutability": "view",
      "type": "function"
    },
    {
      "inputs": [],
      "name": "reFund",
      "outputs": [],
      "stateMutability": "nonpayable",
      "type": "function"
    }
  ],
  "bytecode": "0x608060405234801561000f575f5ffd5b506040516112b33803806112b383398181016040528101906100319190610157565b8060045f6101000a81548173ffffffffffffffffffffffffffffffffffffffff021916908373ffffffffffffffffffffffffffffffffffffffff16021790555042600181905550816002819055503360035f6101000a81548173ffffffffffffffffffffffffffffffffffffffff021916908373ffffffffffffffffffffffffffffffffffffffff1602179055505050610195565b5f5ffd5b5f819050919050565b6100dc816100ca565b81146100e6575f5ffd5b50565b5f815190506100f7816100d3565b92915050565b5f73ffffffffffffffffffffffffffffffffffffffff82169050919050565b5f610126826100fd565b9050919050565b6101368161011c565b8114610140575f5ffd5b50565b5f815190506101518161012d565b92915050565b5f5f6040838503121561016d5761016c6100c6565b5b5f61017a858286016100e9565b925050602061018b85828601610143565b9150509250929050565b611111806101a25f395ff3fe60806040526004361061009b575f3560e01c8063b69bb3ac11610063578063b69bb3ac1461013b578063bea4dfb514610165578063bfc12c051461018f578063c086381e146101b9578063cc1f2afa146101f5578063da5ea4ee1461021f5761009b565b80630d6680871461009f5780630ff0a4df146100c95780633e47d6f3146100df5780638edd6eb61461011b578063b60d428814610131575b5f5ffd5b3480156100aa575f5ffd5b506100b3610249565b6040516100c091906109a1565b60405180910390f35b3480156100d4575f5ffd5b506100dd61024f565b005b3480156100ea575f5ffd5b5061010560048036038101906101009190610a18565b61049f565b60405161011291906109a1565b60405180910390f35b348015610126575f5ffd5b5061012f6104b3565b005b610139610763565b005b348015610146575f5ffd5b5061014f610893565b60405161015c9190610a5d565b60405180910390f35b348015610170575f5ffd5b506101796108a6565b6040516101869190610a8e565b60405180910390f35b34801561019a575f5ffd5b506101a3610943565b6040516101b091906109a1565b60405180910390f35b3480156101c4575f5ffd5b506101df60048036038101906101da9190610ad1565b610949565b6040516101ec91906109a1565b60405180910390f35b348015610200575f5ffd5b50610209610973565b60405161021691906109a1565b60405180910390f35b34801561022a575f5ffd5b5061023361097e565b60405161024091906109a1565b60405180910390f35b60025481565b663ff2e795f5000061026047610949565b106102a0576040517f08c379a000000000000000000000000000000000000000000000000000000000815260040161029790610b56565b60405180910390fd5b6002546001546102b09190610ba1565b4210156102f2576040517f08c379a00000000000000000000000000000000000000000000000000000000081526004016102e990610c1e565b60405180910390fd5b5f5f5f3373ffffffffffffffffffffffffffffffffffffffff1673ffffffffffffffffffffffffffffffffffffffff1681526020019081526020015f205411610370576040517f08c379a000000000000000000000000000000000000000000000000000000000815260040161036790610c86565b60405180910390fd5b5f5f5f3373ffffffffffffffffffffffffffffffffffffffff1673ffffffffffffffffffffffffffffffffffffffff1681526020019081526020015f205490505f5f5f3373ffffffffffffffffffffffffffffffffffffffff1673ffffffffffffffffffffffffffffffffffffffff1681526020019081526020015f20819055505f3373ffffffffffffffffffffffffffffffffffffffff168260405161041690610cd1565b5f6040518083038185875af1925050503d805f8114610450576040519150601f19603f3d011682016040523d82523d5f602084013e610455565b606091505b5050809150508061049b576040517f08c379a000000000000000000000000000000000000000000000000000000000815260040161049290610d2f565b60405180910390fd5b5050565b5f602052805f5260405f205f915090505481565b663ff2e795f500006104c447610949565b1015610505576040517f08c379a00000000000000000000000000000000000000000000000000000000081526004016104fc90610d97565b60405180910390fd5b60035f9054906101000a900473ffffffffffffffffffffffffffffffffffffffff1673ffffffffffffffffffffffffffffffffffffffff163373ffffffffffffffffffffffffffffffffffffffff1614610594576040517f08c379a000000000000000000000000000000000000000000000000000000000815260040161058b90610e25565b60405180910390fd5b6002546001546105a49190610ba1565b4210156105e6576040517f08c379a00000000000000000000000000000000000000000000000000000000081526004016105dd90610c1e565b60405180910390fd5b600360149054906101000a900460ff16610761575f5f5f3373ffffffffffffffffffffffffffffffffffffffff1673ffffffffffffffffffffffffffffffffffffffff1681526020019081526020015f20819055506001600360146101000a81548160ff0219169083151502179055505f5f4790503373ffffffffffffffffffffffffffffffffffffffff168160405161067f90610cd1565b5f6040518083038185875af1925050503d805f81146106b9576040519150601f19603f3d011682016040523d82523d5f602084013e6106be565b606091505b50508092505081610704576040517f08c379a00000000000000000000000000000000000000000000000000000000081526004016106fb90610d2f565b60405180910390fd5b7fb8c08a5bc076e98f0b773e6d06c33768e0f4e773be6c711fbb65bca4913d426d60035f9054906101000a900473ffffffffffffffffffffffffffffffffffffffff1682604051610756929190610e52565b60405180910390a150505b565b662386f26fc1000061077434610949565b10156107b5576040517f08c379a00000000000000000000000000000000000000000000000000000000081526004016107ac90610ec3565b60405180910390fd5b6002546001546107c59190610ba1565b4210610806576040517f08c379a00000000000000000000000000000000000000000000000000000000081526004016107fd90610f2b565b60405180910390fd5b345f5f3373ffffffffffffffffffffffffffffffffffffffff1673ffffffffffffffffffffffffffffffffffffffff1681526020019081526020015f205f8282546108519190610ba1565b925050819055507f8674c517851b3695d3e5b6d30650f3cd2bce6e6c650ef891eec143cc2f46ace53334604051610889929190610e52565b60405180910390a1565b600360149054906101000a900460ff1681565b5f5f60045f9054906101000a900473ffffffffffffffffffffffffffffffffffffffff1673ffffffffffffffffffffffffffffffffffffffff1663feaf968c6040518163ffffffff1660e01b815260040160a060405180830381865afa158015610912573d5f5f3e3d5ffd5b505050506040513d601f19601f820116820180604052508101906109369190610fc6565b5050509150508091505090565b60015481565b5f6305f5e100826109586108a6565b610962919061103d565b61096c91906110ab565b9050919050565b663ff2e795f5000081565b662386f26fc1000081565b5f819050919050565b61099b81610989565b82525050565b5f6020820190506109b45f830184610992565b92915050565b5f5ffd5b5f73ffffffffffffffffffffffffffffffffffffffff82169050919050565b5f6109e7826109be565b9050919050565b6109f7816109dd565b8114610a01575f5ffd5b50565b5f81359050610a12816109ee565b92915050565b5f60208284031215610a2d57610a2c6109ba565b5b5f610a3a84828501610a04565b91505092915050565b5f8115159050919050565b610a5781610a43565b82525050565b5f602082019050610a705f830184610a4e565b92915050565b5f819050919050565b610a8881610a76565b82525050565b5f602082019050610aa15f830184610a7f565b92915050565b610ab081610989565b8114610aba575f5ffd5b50565b5f81359050610acb81610aa7565b92915050565b5f60208284031215610ae657610ae56109ba565b5b5f610af384828501610abd565b91505092915050565b5f82825260208201905092915050565b7f74617267657420697320726561636865640000000000000000000000000000005f82015250565b5f610b40601183610afc565b9150610b4b82610b0c565b602082019050919050565b5f6020820190508181035f830152610b6d81610b34565b9050919050565b7f4e487b71000000000000000000000000000000000000000000000000000000005f52601160045260245ffd5b5f610bab82610989565b9150610bb683610989565b9250828201905080821115610bce57610bcd610b74565b5b92915050565b7f77696e646f77206973206e6f7420636c6f7365640000000000000000000000005f82015250565b5f610c08601483610afc565b9150610c1382610bd4565b602082019050919050565b5f6020820190508181035f830152610c3581610bfc565b9050919050565b7f7468657265206973206e6f2066756e6420666f7220796f7500000000000000005f82015250565b5f610c70601883610afc565b9150610c7b82610c3c565b602082019050919050565b5f6020820190508181035f830152610c9d81610c64565b9050919050565b5f81905092915050565b50565b5f610cbc5f83610ca4565b9150610cc782610cae565b5f82019050919050565b5f610cdb82610cb1565b9150819050919050565b7f7472616e73666572207478206661696c656400000000000000000000000000005f82015250565b5f610d19601283610afc565b9150610d2482610ce5565b602082019050919050565b5f6020820190508181035f830152610d4681610d0d565b9050919050565b7f796f752068617665206e6f7420726561636865642074686520746172676574005f82015250565b5f610d81601f83610afc565b9150610d8c82610d4d565b602082019050919050565b5f6020820190508181035f830152610dae81610d75565b9050919050565b7f746869732066756e6374696f6e2063616e206f6e6c792062652063616c6c65645f8201527f206279206f776e65720000000000000000000000000000000000000000000000602082015250565b5f610e0f602983610afc565b9150610e1a82610db5565b604082019050919050565b5f6020820190508181035f830152610e3c81610e03565b9050919050565b610e4c816109dd565b82525050565b5f604082019050610e655f830185610e43565b610e726020830184610992565b9392505050565b7f73656e64206d6f726520455448000000000000000000000000000000000000005f82015250565b5f610ead600d83610afc565b9150610eb882610e79565b602082019050919050565b5f6020820190508181035f830152610eda81610ea1565b9050919050565b7f77696e646f7720697320636c6f736564000000000000000000000000000000005f82015250565b5f610f15601083610afc565b9150610f2082610ee1565b602082019050919050565b5f6020820190508181035f830152610f4281610f09565b9050919050565b5f69ffffffffffffffffffff82169050919050565b610f6781610f49565b8114610f71575f5ffd5b50565b5f81519050610f8281610f5e565b92915050565b610f9181610a76565b8114610f9b575f5ffd5b50565b5f81519050610fac81610f88565b92915050565b5f81519050610fc081610aa7565b92915050565b5f5f5f5f5f60a08688031215610fdf57610fde6109ba565b5b5f610fec88828901610f74565b9550506020610ffd88828901610f9e565b945050604061100e88828901610fb2565b935050606061101f88828901610fb2565b925050608061103088828901610f74565b9150509295509295909350565b5f61104782610989565b915061105283610989565b925082820261106081610989565b9150828204841483151761107757611076610b74565b5b5092915050565b7f4e487b71000000000000000000000000000000000000000000000000000000005f52601260045260245ffd5b5f6110b582610989565b91506110c083610989565b9250826110d0576110cf61107e565b5b82820490509291505056fea2646970667358221220b942bfa7a03f340941f8c9f4851c52f5bfe98cd723206bf73ca3c5af873099f364736f6c634300081c0033",
  "linkReferences": {},
  "deployedLinkReferences": {},
  "immutableReferences": {},
  "inputSourceName": "project/contracts/FundMe.sol",
  "buildInfoId": "solc-0_8_28-200736dd5f5b54241901c1449bb9cb7bb3341f08"
}